:1000000077C0000090C000008EC000008CC00000CF
:100010008AC0000088C0000086C0000084C00000C4
:1000200082C0000080C000007EC00000F9C3000054
:100030009EC4000078C0000076C0000074C00000BC
:1000400072C0000070C000006EC000006CC00000F4
:100050006AC0000068C0000066C00000ADC10000BA
:1000600062C0000060C000005EC000005CC0000014
:100070005AC000001203500069006E006F00630058
:10008000630069006F0000001203500069006E00F9
:100090006F006300630069006F000000040309043F
:1000A00009023E00020100C0FA0904000001020238
:1000B00001000524000110042402060524060001A5
:1000C000070582030800FF09040100020A0000007E
:1000D00007050402400001070583024000011201E8
:1000E000100102000008501D516001000102DC01F6
:1000F00011241FBECFEFD2E0DEBFCDBF11E0A0E0E4
:10010000B1E0E4EAFFE002C005900D92A831B1072A
:10011000D9F712E0A8E1B1E001C01D92A133B10707
:10012000E1F72AD03DC76CCF84B7877F84BF28E131
:100130000FB6F89420936000109260000FBE87E61F
:1001400090E09093CD008093CC0086E08093CA002D
:100150001092C8002093C900539A5A9A8AB18066B7
:100160008AB98BB180668BB950D38AB18BB184E0E8
:1001700085BD5F9A579A0895D7DF2FB7F89480EA24
:1001800091E0909321028093200290932302809328
:1001900022022FBF2FB7F8948BE191E090939C013E
:1001A00080939B0190939E0180939D012FBF789433
:1001B000C0EAD1E08C0183E0E82E9FB7F8948091EB
:1001C00024029FBF803811F180E091E09CD697FD1A
:1001D0001DC0E0912002F0912102808380912002D5
:1001E00090912102019690932102809320028052E7
:1001F000924021F4D0932102C09320029FB7F8943B
:10020000809124028F5F809324029FBF8FB7F89460
:10021000F0909F018FBFA89904C080E68F1508F069
:100220003FC0A89A80919F01882301F15D98E092D8
:1002300018011CC0E0919D01F0919E016191F09325
:100240009E01E0939D01EB59F14021F410939E0132
:1002500000939D019FB7F89480919F0181508093F6
:100260009F019FBF80E091E0F2D5FA94F110E2CFB8
:1002700080911801882341F080911801815080936A
:100280001801811101C05D9A80911901882341F004
:1002900080911901815080931901811101C05E9AEA
:1002A0009FB7F894809124029FBF882309F1E091C1
:1002B0002202F09123029191F0932302E093220213
:1002C000E052F24021F4D0932302C09322022FB7D0
:1002D000F894809124028150809324022FBF809152
:1002E000C80085FFFCCF9093CE005E98E092190184
:1002F00080E091E0FAD5E1D460CF80E091E05AC58A
:1003000080E091E0ECC41F93CF93DF93EC01EC8984
:10031000E150E23028F4F0E0EA5EFE4F108101C0C7
:1003200010E08B89823009F418608D89873031F0B4
:10033000883031F0863029F4126003C0146001C0A7
:1003400016601092C9001092C8001092CA002F8542
:10035000388949895A89211581EE380741055105A7
:1003600071F0CA01B90196958795779567956058A0
:100370007B47814E9F4FF2D52150310902C020E1C9
:1003800030E03093CD002093CC001093CA008F85CD
:100390009889A989BA898115914EA105B10511F4F1
:1003A00080E001C082E08093C80088E98093C900A2
:1003B000DF91CF911F9108951F920F920FB60F9268
:1003C00011242F938F939F93EF93FF938091CE00EF
:1003D0009EB39430F1F4E0919B01F0919C018083F5
:1003E000E0919B01F0919C01CF01019690939C01BB
:1003F00080939B018B59914021F48BE191E0928392
:1004000081839FB7F89480919F018F5F80939F01B4
:100410009FBFFF91EF919F918F912F910F900FBEF2
:100420000F901F901895FC01858580FF02C05F9892
:1004300008955F9A0895292F33272230310539F026
:100440002330310549F02130310521F128C0EEE398
:10045000F0E080EA90E027C099278130910561F0B3
:100460008230910581F0892BD1F4ECE9F0E0E49140
:10047000F0E08CE990E017C0E8E8F0E0E491F0E00B
:1004800088E890E010C0E4E7F0E0E491F0E084E771
:1004900090E009C0E2E1F0E08EED90E004C0E0E021
:1004A000F0E080E090E0DA018D939C93CF01089515
:1004B00028E030E040E003C04F5F220F331F2817D1
:1004C0003907D0F3842F8295807F08958093E900C7
:1004D000EBEEF0E0808181608083EDEEF0E0108251
:1004E0006093EC0040838091EE00881F8827881F6E
:1004F00008951092F40080E08093E9001092F000DB
:100500001092E8001092ED009091EB009E7F909386
:10051000EB008F5F853081F708958091290287FD78
:1005200005C08091E80080FF0DC010C08091E800F8
:1005300082FD04C08EB38111F9CF08958091E80047
:100540008B7707C08EB38111ECCF08958091E800BE
:100550008E778093E800089585E69091EC0090FFF7
:1005600005C09091E80090FF05C01BC09091E80085
:1005700092FD17C09EB39923B1F09EB39530A9F0B8
:100580009091EB0095FD13C09091E10092FFE5CFB3
:100590009091E1009B7F9093E1008150F1F684E01F
:1005A000089580E0089582E0089583E0089581E051
:1005B000089520912F02309130022617370748F016
:1005C0006115710539F42091E8002E772093E80039
:1005D00001C0B901FC0190E029C08091E80083FDD1
:1005E00037C08091E80082FD2DC08EB3882391F141
:1005F0008EB3853089F18091E80080FF17C080912B
:10060000F20006C091919093F100615071098F5FE3
:100610006115710511F08830A8F391E0883009F078
:1006200090E08091E8008E778093E8006115710575
:10063000A1F69111D2CF06C08EB3882359F08EB3A4
:10064000853051F08091E80082FFF6CF80E0089578
:1006500081E0089582E0089583E0089520912F02BB
:10066000309130022617370748F06115710539F4CB
:100670002091E8002E772093E80001C0B9019C0189
:1006800090E02CC08091E80083FD3AC08091E800A2
:1006900082FD30C08EB38823A9F18EB38530A1F1DD
:1006A0008091E80080FF1AC08091F20009C0F90132
:1006B0002F5F3F4FE491E093F100615071098F5F2C
:1006C0006115710511F0883090F391E0883009F0E0
:1006D00090E08091E8008E778093E80061157105C5
:1006E00089F69111CFCF06C08EB3882359F08EB30F
:1006F000853051F08091E80082FFF6CF80E00895C8
:1007000081E0089582E0089583E008956115710500
:1007100029F42091E8002B772093E8009C0121C068
:100720008091E80083FD2BC08EB3882371F18EB3D6
:10073000853039F18091E80082FFF2CFF90107C0DE
:100740008091F10081939F016150710929F09F010F
:100750008091F2008111F4CF8091E8008B77809333
:10076000E80061157105E1F68091E80080FD0BC09D
:100770008EB3882351F08EB38530B1F702C081E08B
:10078000089583E0089580E0089582E0089542D0BE
:1007900044D01EBA1092270210922602109225020F
:1007A00084E089BD89B5826089BD09B400FEFDCFB2
:1007B0008091D800982F9F779093D800806880937D
:1007C000D800809163008E7F809363008091D80071
:1007D0008F7D8093D8008091E0008E7F8093E00031
:1007E0008091E1008E7F8093E1008091E200816042
:1007F0008093E2008091E100877F8093E100809107
:10080000E20088608093E2000895C1DF81E0809378
:10081000280208951092E20008951092E1000895D0
:100820001F920F920FB60F9211242F933F934F9365
:100830005F936F937F938F939F93AF93BF93EF9348
:10084000FF938091E10080FF1BC08091E20080FF58
:1008500017C08091E1008E7F8093E1008091E200DB
:100860008E7F8093E2008091E20080618093E200BD
:100870008091D80080628093D80019BC1EBA1CD227
:100880008091E10084FF29C08091E20084FF25C0AF
:1008900084E089BD89B5826089BD09B400FEFDCFC1
:1008A0008091D8008F7D8093D8008091E1008F7E69
:1008B0008093E1008091E2008F7E8093E20080913E
:1008C000E20081608093E20080912702882311F08A
:1008D00084E001C081E08EBBEFD18091E10083FF15
:1008E00027C08091E20083FF23C08091E100877FD1
:1008F0008093E10082E08EBB109227028091E1009C
:100900008E7F8093E1008091E2008E7F8093E200F1
:100910008091E20080618093E200EBDD42E060E0E4
:1009200080E0D4DD8091F00088608093F000C4D135
:100930008091E10082FF0AC08091E20082FF06C040
:100940008091E1008B7F8093E100B6D1FF91EF9120
:10095000BF91AF919F918F917F916F915F914F91D7
:100960003F912F910F900FBE0F901F9018951F92DF
:100970000F920FB60F921124EF92FF920F931F93D5
:100980002F933F934F935F936F937F938F939F9397
:10099000AF93BF93EF93FF93CF93DF931F92CDB7A6
:1009A000DEB789EEE82EF12CF70180818770108286
:1009B00000EF10E0F8019081977F9083789489830D
:1009C00022D0F894F7011082F8019081986090830A
:1009D0008981F70180830F90DF91CF91FF91EF9193
:1009E000BF91AF919F918F917F916F915F914F9147
:1009F0003F912F911F910F91FF90EF900F900FBE9D
:100A00000F901F9018950F931F93CF93DF93CDB73F
:100A1000DEB7AC970FB6F894DEBF0FBECDBFE9E2EC
:100A2000F2E08091F100819322E0E133F207C9F70F
:100A30008091290290912A02953009F484C038F4FB
:100A40009130B1F170F0933009F029C131C0983084
:100A500009F4EDC0993009F4FCC0963009F01FC1CB
:100A600094C0803821F0823809F019C108C0809103
:100A7000250290912602992389F082600FC080910F
:100A80002D0290912E02877099278093E900809122
:100A9000EB0085FB882780F91092E9009091E8002F
:100AA000977F9093E8008093F1001092F100CAC004
:100AB000882319F0823009F0F2C08F7121F0823062
:100AC00009F0DEC00BC080912B02813009F0D8C044
:100AD000933009F080E0809326022FC080912B0292
:100AE00081112BC080912D0290912E028770992741
:100AF000009709F4C5C08093E9002091EB0020FF26
:100B0000BFC020912A02233021F48091EB00806243
:100B100012C09091EB0090619093EB0021E030E0E7
:100B200001C0220F8A95EAF72093EA001092EA00AA
:100B30008091EB0088608093EB001092E900809137
:100B4000E800877F82C08111AAC000912B0210911A
:100B50002C028091E800877F8093E800DEDC04C0EF
:100B60008EB3882309F48CC08091E80080FFF8CF11
:100B7000C8018F779927009711F023E001C022E088
:100B80002EBB80688093E3007BC08058823008F0E1
:100B900086C080912B0290912C028C3D23E092071D
:100BA00079F583E08A838AE289833FB7F894DE018E
:100BB000139680E09EE041E2E92FF0E04093570079
:100BC000E49180FF03C0E295EF709F5FEF702E2FDE
:100BD000205D2A3308F0295F2C9311961C921197FF
:100BE00012968F5F843141F73FBF8091E800877F85
:100BF0008093E8006AE270E0CE010196DADC11C071
:100C0000AE01455D5F4F60912D0215DC0097C1F18B
:100C10002091E800277F2093E800BC018BA59CA5CC
:100C20001DDD8091E8008B778093E80029C0803833
:100C3000B1F58091E800877F8093E80080912702DA
:100C40008093F1008091E8008E778093E80065DC66
:100C500017C0811124C090912B02923088F48091AA
:100C6000E800877F8093E8009093270256DC80910C
:100C70002702882311F084E001C083E08EBB3DDBB6
:100C80008091E80083FF0DC08091EB00806280932B
:100C9000EB008091E800877F8093E80002C030DBA2
:100CA000EFCFAC960FB6F894DEBF0FBECDBFDF918D
:100CB000CF911F910F9108950895CF938EB38823FC
:100CC00059F0C091E900C7701092E9008091E800E6
:100CD00083FD99DEC093E900CF9108950895CF93E5
:100CE000DF93EC018091E80083FF61C0888190E090
:100CF00020912D0230912E022817390709F057C094
:100D000080912A02813259F020F4803209F04FC0DC
:100D100019C0823269F1833209F049C038C080912C
:100D20002902813A09F043C08091E800877F8093CF
:100D3000E80067E070E0CE010F963BDC8091E800B0
:100D40008B7713C080912902813289F58091E80068
:100D5000877F8093E80067E070E0CE010F96D6DCD5
:100D6000CE01D1DA8091E8008E778093E8001FC031
:100D7000809129028132D9F48091E800877F8093A5
:100D8000E80080912B028D87CE014DDB0DC0809154
:100D90002902813261F48091E800877F8093E80026
:100DA00060912B02CE019ADFDF91CF91B6CBDF911C
:100DB000CF9108950F931F93CF93DF93EC010D967E
:100DC000FC0189E0DF011D928A95E9F72A813B81C8
:100DD0008C81882311F014E001C010E00981C90161
:100DE00067DB412F482B426061E8802F6FDB88234F
:100DF00041F12E813F818885882311F014E001C0E4
:100E000010E00D81C90154DB412F482B426060E89E
:100E1000802F5CDB8823A9F02A853B858C8588237D
:100E200011F014E001C010E0C985C90141DB412F78
:100E3000482B426061EC8C2FDF91CF911F910F9175
:100E400045CB80E0DF91CF911F910F910895CF9313
:100E5000C62F2EB32430E9F4FC01478550896189FF
:100E60007289452B462B472BA1F081818093E900A5
:100E70008091E80085FF04C0C093F10080E00AC0C3
:100E80008091E8008E778093E80066DB8823A1F3E9
:100E900001C082E0CF9108952EB3243021F5FC01EA
:100EA0004785508961897289452B462B472BD9F09C
:100EB00081818093E9008091F200811102C080E07D
:100EC00008959091E8008091E8008E778093E80083
:100ED00095FDF5CF41DB811107C09091E8009E7729
:100EE0009093E800089582E008952EB3243051F4E1
:100EF000FC014785508961897289452B462B472B18
:100F000009F0CACF08952EB3243019F02FEF3FEF28
:100F100023C0FC014785508961897289452B462B86
:100F2000472BA1F385818093E9008091E80082FF3F
:100F3000EDCF8091F200882321F02091F10030E084
:100F400002C02FEF3FEF8091F200811105C0809128
:100F5000E8008B778093E800C9010895A1E21A2E7A
:100F6000AA1BBB1BFD010DC0AA1FBB1FEE1FFF1F4D
:100F7000A217B307E407F50720F0A21BB30BE40B9D
:100F8000F50B661F771F881F991F1A9469F76095E4
:100F90007095809590959B01AC01BD01CF0108959E
:040FA000F894FFCFF3
:100FA40000034000000440000002080000000000AC
:080FB4000000000000003020E5
:00000001FF
