:020000023000CC
:10E0000099C00000BEC00000BCC00000BAC0000043
:10E01000B8C00000B6C00000B4C00000B2C000002C
:10E02000B0C00000AEC00000ACC00000AAC000003C
:10E03000A8C00000A6C00000A4C00000A2C000004C
:10E04000A0C000009EC000009CC000009AC000005C
:10E0500098C0000096C0000094C0000092C000006C
:10E0600090C000008EC000008CC000008AC000007C
:10E0700088C0000086C0000084C0000082C000008C
:10E0800080C000007EC000007CC000007AC000009C
:10E0900078C0000076C0000074C0000072C00000AC
:10E0A00070C000006EC000006CC000006AC00000BC
:10E0B00068C0000066C0000064C0000062C00000CC
:10E0C00060C000005EC000005CC000005AC00000DC
:10E0D00058C0000056C0000054C0000052C00000EC
:10E0E00050C000004EC000004CC000004AC00000FC
:10E0F00048C0000046C0000044C0000042C000000C
:10E1000040C000003EC000003CC000003AC000001B
:10E1100038C0000036C0000034C0000032C000002B
:10E1200030C000002EC000002CC000002AC000003B
:10E1300028C0000011241FBECFEFD1E8DEBFCDBF45
:10E1400001E00CBF12E0A0E0B2E0EEE9F1EF03E085
:10E150000BBF02C007900D92AC32B107D9F723E094
:10E16000ACE2B2E001C01D92AC3CB207E1F7CFD007
:10E170000D94CDF801E80EBF0FEF0DBF11241FBEA7
:10E18000C6C03ECF08950895E82FF0E0E05CFE4F52
:10E1900060830895E82FF0E0E05CFE4F80810895F1
:10E1A000E82FF0E0E05CFE4F80816823862F90E04E
:10E1B00002C0959587954A95E2F70895E82FF0E01B
:10E1C000E05CFE4F042E01C0220F0A94EAF72623DA
:10E1D000609580816823262B2083089587FD8FE733
:10E1E00080938001482F50E081E891E0A2C7FF9220
:10E1F0000F931F93CF93DF93EA01F0907B01462F9B
:10E20000F61608F44F2D042F10E050E060E871E09E
:10E2100090D7F801E058FE4F808188838F2DDF91E1
:10E22000CF911F910F91FF900895FF920F931F932D
:10E23000CF93DF938C01F62EEA01209749F047E057
:10E2400060E886E0ADDF91E0813009F090E09883EE
:10E2500040E050E06F2DC801DF91CF911F910F91E9
:10E26000FF90C5CFDF92EF92FF920F931F93CF9352
:10E27000DF938C01D62E7A01E901209749F047E01F
:10E2800060E886E08DDF91E0813009F090E09883CE
:10E29000A7016D2DC801DF91CF911F910F91FF90C4
:10E2A000EF90DF90A4CF80917B010895962FBA0163
:10E2B000282F30E0F901E90FF11DE038F10514F0E5
:10E2C0009FE7981B20583E4F492F50E0C90131C7A6
:10E2D000A42F952F282F30E0F901E60FF11DE0382B
:10E2E000F10514F06FE7681B20583E4F462F50E0B1
:10E2F000B9018A2F1EC78093C6008091C00086FF97
:10E30000FCCF8091C00080648093C0000895CF93BB
:10E31000DF93CDB7DEB7C353D1400FB6F894DEBF5D
:10E320000FBECDBF01E80EBF0FEF0DBF84B78EBB90
:10E33000F39B10C08DEB9FE105D781110BC06FEFF0
:10E340008DEB9FE10CD711E0CE5DDE4F1883C252FA
:10E35000D14005C0CE5DDE4F1882C252D140F89444
:10E36000A89514BE8091600088618093600010922F
:10E370006000789484B1806784B985B1806785B97D
:10E380008091800081688093800080918100896005
:10E3900080938100809180008062809380008091D2
:10E3A000B00083688093B0008091B1008160809359
:10E3B000B1008FEB9FE1C6D68093C70380EC9FE14D
:10E3C000C1D68093C60381EC9FE1BCD68093C8037D
:10E3D0008091C70381110FC08091C60381110BC0CA
:10E3E0008091C803811107C01092C7038FEF8093FB
:10E3F000C6031092C8032091C7038FEF90E0AC01D1
:10E40000421B510950938900409388002091C60314
:10E41000821B910990938B0080938A008091C8039E
:10E4200080958093B3008091C00082608093C0008B
:10E4300080E18093C40088E18093C1000000212C1A
:10E44000312C2101CD5DDE4F1882C352D140CF5D0A
:10E45000DE4F1882C152D140C25EDE4F1882CE51CB
:10E46000D140612CC15EDE4F19821882CF51D1405C
:10E47000812C912C54014BBEF10167917691C25DC4
:10E48000DE4F79836883CE52D140CE5DDE4F7881F6
:10E49000C252D14071110CC0712C00E010E0212C4F
:10E4A000312C2101CF5DDE4F1882C152D1405DC0B9
:10E4B0007724739402E010E058C085E08A95F1F764
:10E4C00000009FEF291A390A490A590AA1E12A16C0
:10E4D000A7E23A064104510420F07724739401E046
:10E4E00010E0C201B10127EC3BE140E050E0FFD574
:10E4F000672B682B692B69F590912D0281E09111B2
:10E5000080E080932D0280912D028823C1F08091BC
:10E51000C703F701E81BF109F0938900E093880035
:10E520008091C6039701281B310930938B002093FB
:10E530008A008091C80380958093B3000AC0F0924E
:10E540008900E0928800F0928B00E0928A00D092DD
:10E55000B3008091C00087FF03C00F5F1F4F0AC048
:10E560000115110509F4A9CFF8CFEE24EA94F12C96
:10E57000DD24DA940115110561F30130110509F06C
:10E58000C5C2B9C240E020E030E00130110531F4ED
:10E590000DC00197A109B10929F40CC081E092E1F5
:10E5A000AAE7B0E05091C00057FFF3CF8091C600BA
:10E5B000712C03C07724739480E0433081F120F400
:10E5C000413001F138F507C04530C9F160F14630FE
:10E5D00009F052C04EC08B3109F422C3CD5DDE4F2D
:10E5E0008881C352D1408F5FCD5DDE4F5881C352C9
:10E5F000D140CD5DDE4F8883C352D140563008F004
:10E6000013C33CC06826C25EDE4F8883CE51D14022
:10E6100042E034C0382F20E0682643E02FC0282B8A
:10E62000682644E02BC08E3009F001C36826C15E25
:10E63000DE4F19821882CF51D14045E01FC0E1E082
:10E64000F0E0EC0FFD1FC15EDE4F68817981CF5194
:10E65000D140E60FF71F80836F5F7F4FC15EDE4FB3
:10E6600079836883CF51D14068266217730731F4EC
:10E67000E0C2861541F0DBC2473029F000E010E02F
:10E68000772009F482CF2981233109F4C9C0B8F475
:10E69000263009F4B3C050F4223009F463C12330AA
:10E6A00009F469C0213009F0BBC14FC0213109F420
:10E6B00071C008F0B5C1203109F0B2C153C1283191
:10E6C00009F486C048F4253109F4AAC008F44CC105
:10E6D000263109F0A5C148C12B3109F462C02D31A2
:10E6E00021F02A3109F09CC167C08D81803339F453
:10E6F0009F819923E1F09130E1F498EA1DC0982FB1
:10E700009075C9F0803521F499E0E0E0F0E00BC0AD
:10E71000883589F49E81911103C0E1E0F0E002C0E8
:10E72000E3E0F0E099E090935700949105C09EE1FA
:10E7300003C092E001C090E01A821B828C831D828C
:10E740009E831F8207E010E06FC11A8288E08B83EE
:10E7500081E48C8386E58D8382E58E8389E48F83D3
:10E7600083E5888780E589878FE58A8782E38B87C1
:10E770000BE010E059C1EA81E059E33028F4F0E001
:10E78000E75DFD4F808101C080E01A828B8303E04A
:10E7900010E04AC1F1E0CF5DDE4FF883C152D140B5
:10E7A000E1C08D81882321F0813021F488EA23C0E3
:10E7B0008EE121C082E01FC01A82E1E0F0E089E032
:10E7C00080935700E491EB831C8204E010E02CC19D
:10E7D0008B81803551F48C81883019F4E2E0F0E0CF
:10E7E00006C089E0E0E0F0E003C0E3E0F0E089E0AB
:10E7F0008093570084911A828B83E6CF8A818B8025
:10E80000912CA12CB12C540199248824B82A8D81F3
:10E81000882A8C81982A880C991CAA1CBB1CA2C02F
:10E82000FA81CB5DDE4FF883C552D140CC5DDE4F1F
:10E830001882C452D1408B81CC5DDE4FC880D98014
:10E84000C452D140C82AC601233109F05AC080FD04
:10E85000E7C08110E5C0813011E0910708F0E0C009
:10E86000B501A401480F591F611D711D4130504E63
:10E870006340710508F0D4C023E0F401A0925B006E
:10E8800020935700E89507B600FCFDCF2B85DE01ED
:10E890001D96B501A401FD0131973081C95DDE4FA0
:10E8A0003883C752D140CA5DDE4F1882C652D1406C
:10E8B000CA5DDE4FE881F981C652D140E22B9F014B
:10E8C00011E00901FA0160935B0010935700E8958D
:10E8D00011244E5F5F4F6F4F7F4F029719F02C91BD
:10E8E0001296D9CF85E0F401A0925B008093570087
:10E8F000E89507B600FCFDCF81E180935700E895CD
:10E9000031C0A50194015695479537952795C65D69
:10E91000DE4F288339834A835B83CA52D14000E0AB
:10E9200010E08BE0E82EF12CEC0EFD1E0EC0D7019E
:10E930006D917D01C65DDE4F88819981CA52D140BB
:10E94000800F911F0CD40F5F1F4F0C151D0579F719
:10E9500020E030E0000F111F221F331F800E911E98
:10E96000A21EB31E1A825EC0BA81C75DDE4FB88395
:10E97000C952D140C85DDE4F1882C852D1408B8148
:10E98000C85DDE4FE881F981C852D140E82BCF0144
:10E990008C010D5F1F4F1A822431C1F49E012C5F40
:10E9A0003F4FDE011396ABBEF401479156914C9355
:10E9B000F90150831296F2E08F0E911CA11CB11C3C
:10E9C00002972E5F3F4F009771F728C09C01B50159
:10E9D000A401FE01339641BDC52ED62EE72EFF249D
:10E9E000C2BC4F5F5F4F6F4F7F4FF89AA0B5A193A6
:10E9F0002150310981F7AC014150510960E070E0CC
:10EA00004F5F5F4F6F4F7F4F840E951EA61EB71E40
:10EA1000A3E0B0E0AC0FBD1FA80FB91F1C9204C04B
:10EA200080EC8A8302E010E08BE165DCC25EDE4FA1
:10EA30008881CE51D1405FDC812F5DDC802F5BDC93
:10EA40008EE059DC95E1692EC25EDE4F2881CE5101
:10EA5000D14062266026612641E050E04C0F5D1FE8
:10EA6000040F151F7A0106C0D701DD907D018D2DA1
:10EA700042DC6D24E016F106B9F7862D3CDCC25E5F
:10EA8000DE4FB881CE51D140BF5FC25EDE4FB8834A
:10EA9000CE51D14090912D0281E0911180E0809380
:10EAA0002D0280912D028823B9F02091C7038FEFAA
:10EAB00090E0FC01E21BF109F0938900E0938800EB
:10EAC0002091C603821B910990938B0080938A004A
:10EAD0008091C80380950BC08FEF90E090938900E0
:10EAE0008093880090938B0080938A008FEF8093AF
:10EAF000B30000E010E0CF5DDE4FF881C152D1409D
:10EB0000F11154C0772009F43DCD50C0CE5DDE4FE9
:10EB10001881C252D140112309F448C010928000DC
:10EB2000109281001092B0001092B10085B1806700
:10EB300085B986EF9FE10ED3AC0184EF9FE1CE5CF7
:10EB4000DE4F4883C253D140CD5CDE4F5883C35360
:10EB5000D14000D3BC0183EF9FE1C05DDE4F6883ED
:10EB6000C053D140CF5CDE4F7883C153D140EAD24D
:10EB7000C12CD12CE12CF12C00E010E020E030E0A1
:10EB8000CE5CDE4F4881C253D140CD5CDE4F588110
:10EB9000C353D140C05DDE4F6881C053D140CF5CCC
:10EBA000DE4F7881C153D1409CD01AD181E180934E
:10EBB0005700E895CF5DDE4F2881C152D140211129
:10EBC0000DC0772009F461CCC25DDE4F48815981C8
:10EBD000CE52D1404F3F5F4F09F457CC84B18F786C
:10EBE00084B985B18F7885B9109280001092810028
:10EBF0001092B0001092B10000008091C0008D7F93
:10EC00008093C00010928000109281001092B0009A
:10EC10001092B10085B1806785B90C94000035CCA5
:10EC20008BE1682E41E02ACD7724739427CD40E014
:10EC300025CD46E023CD8F929F92AF92BF92CF9287
:10EC4000DF92EF92FF920F931F93CF93DF9343E0F6
:10EC5000FB0180935B0040935700E89507B600FCEA
:10EC6000FDCFE091C402812C912C540141E0E401DC
:10EC7000CC53DD4F75016401C60ED71EE81EF91E88
:10EC8000398120E089010E0F111D0801F601E09283
:10EC90005B0040935700E89511245EEF85169104C0
:10ECA000A104B10439F0EA8152E0850E911CA11C47
:10ECB000B11CDDCF25E0FB0180935B002093570062
:10ECC000E89507B600FCFDCFDF91CF911F910F9122
:10ECD000FF90EF90DF90CF90BF90AF909F908F907C
:10ECE00008958F929F92AF92BF92CF92DF92EF9250
:10ECF000FF920F931F93CF93DF9394B1906794B9D2
:10ED000095B1906795B92E98ECE38E2EE2E09E2E99
:10ED1000F4018083F2E3AF2EF2E0BF2EF5017183A0
:10ED20006083C0E3D2E059834883E4E3F2E0C08229
:10ED3000D182E282F382048315832683378380E0C5
:10ED400021DAE9E3F1E080818E7F808380818D7F0D
:10ED50008083808181608083EEE4F1E08081809314
:10ED60002C02108263E082E00FDA60E284E00CDAC9
:10ED7000F5016081B180E3E0F2E06083B1828881D7
:10ED80009981909308028093070282E2FDD96B2D4E
:10ED900083E2FAD96881D98080E2F6D96D2D81E2CB
:10EDA000F3D9F401608188E0EFD968818DE2ECD974
:10EDB00066E182E0E9D968E08FE0DF91CF911F91B1
:10EDC0000F91FF90EF90DF90CF90BF90AF909F900A
:10EDD0008F90DAC98FE0DED983FB882780F9089508
:10EDE0008F929F92AF92CF92DF92EF92FF920F930A
:10EDF0001F93CF93DF93A0E1CA2EA7E2DA2EE12C76
:10EE0000F12CC0E0D1E0BBE48B2EB2E09B2E04ECF1
:10EE100012E0AA24AA942E9AC1111BC008C0EFE9DF
:10EE2000FFE03197F1F700C000006C017D01D2DFF7
:10EE300081110BC0D701C6010197A109B109CD28E5
:10EE4000CE28CF2861F76C017D01C4DF811104C099
:10EE500041C1C0DF8823E9F368E08FE095D949EC30
:10EE600053E06FE780E492E0C2D92E988091490286
:10EE7000833209F41BC178F4803209F483C020F492
:10EE8000813009F018C113C0813209F4EAC082321E
:10EE900009F011C146C0853209F40AC108F43CC02A
:10EEA000863209F466C0873209F005C1D9C0809165
:10EEB000BF0281110DC18091470290914802909349
:10EEC000060280930502809102028F5F8093020206
:10EED00080912E0290912F0290930E0280930D024A
:10EEE00069E182E051D980913901826080933901D2
:10EEF000809139018D7F8093390160E072E08AE270
:10EF00006DD98FE047D986FFFCCF60E48FE03CD914
:10EF100066E182E039D9DCC080914A028093280200
:10EF2000D7C01093CB030093CA0380E091E0A0E028
:10EF3000B0E0E091CA03F091CB03A192F093CB0330
:10EF4000E093CA030197A109B10999F71092C00291
:10EF50001092C1021092C2021092C30210922F02AC
:10EF600010922E021092C5031092C4031092BF0299
:10EF7000AFC080914A0290914B02A0914C02B09197
:10EF80004D0287C080914A028093C9039092CB03BF
:10EF90008092CA03E091CA03F091CB032081809153
:10EFA0002E0290912F028227082E8295807F802545
:10EFB000092E982F82958F70082686959827892785
:10EFC000880F880F880F802580932E0290932F0240
:10EFD0008091C4039091C5032081FC01EC53FD4F47
:10EFE000208301969093C5038093C4038F3F9105BE
:10EFF00031F128F12E9A80912802863449F46091EB
:10F00000C0027091C1028091C2029091C30213DECE
:10F010008091C0029091C102A091C202B091C3023E
:10F020009F5FAF4FBF4F8093C0029093C102A093E8
:10F03000C202B093C3021092C5031092C403809120
:10F04000CA039091CB0301969093CB038093CA039C
:10F050008091C90381508093C90381119BCF38C02F
:10F060004FD680912802863449F46091C002709195
:10F07000C1028091C2029091C302DDDD8091C00285
:10F080009091C102A091C202B091C3029F5FAF4FA5
:10F09000BF4F8093C0029093C102A093C202B0936D
:10F0A000C3021092C5031092C40312C02E9A12C05C
:10F0B000D093BF020DC0C1110BC0C114D104E10433
:10F0C000F10441F0F1E0CF1AD108E108F108A3CE34
:10F0D000C1E0A1CE81E0DF91CF911F910F91FF9010
:10F0E000EF90DF90CF90AF909F908F900895A1E226
:10F0F0001A2EAA1BBB1BFD010DC0AA1FBB1FEE1FB2
:10F10000FF1FA217B307E407F50720F0A21BB30BFC
:10F11000E40BF50B661F771F881F991F1A9469F778
:10F1200060957095809590959B01AC01BD01CF01D4
:10F130000895FB01DC0102C001900D924150504046
:10F14000D8F70895F999FECF92BD81BDF89A992715
:10F1500080B50895A8E1B0E042E050E010C0262F4D
:10F16000F999FECF1FBA92BD81BD20BD0FB6F894AC
:10F17000FA9AF99A0FBE01960895DC01CB01FC01C1
:10F18000F999FECF06C0F2BDE1BDF89A319600B400
:0EF190000D9241505040B8F70895F894FFCF0B
:10F19E00418800000000000000020000050000771A
:10F1AE0069626F00000000000000000000000070A7
:0CF1BE00696E6F6363696F00460F020A00
:10FD000080E090E0DC0123E0B22EAA24A39435E049
:10FD1000932E8C019D0110522C4F3F4FF8012093E0
:10FD20005B00B0925700E89507B600FCFDCF40E0BD
:10FD300050E0BA01FA01E80FF91FC591D4916801AA
:10FD40007901C40ED51EE61EF71E0E01F601E092E3
:10FD50005B00A0925700E89511244E5F5F4F6F4FF4
:10FD60007F4F4115E1E05E076105710519F7F80164
:10FD700020935B0090925700E89507B600FCFDCFFA
:10FD80009F5FAF4FBF4F8115FCE09F07A105B105F5
:10FD900009F0BFCF81E180935700E895E0E0F0EFF4
:02FDA0001995B3
:040000033000E000E9
:00000001FF
