:020000023000CC
:10E0000099C00000BEC00000BCC00000BAC0000043
:10E01000B8C00000B6C00000B4C00000B2C000002C
:10E02000B0C00000AEC00000ACC00000AAC000003C
:10E03000A8C00000A6C00000A4C00000A2C000004C
:10E04000A0C000009EC000009CC000009AC000005C
:10E0500098C0000096C0000094C0000092C000006C
:10E0600090C000008EC000008CC000008AC000007C
:10E0700088C0000086C0000084C0000082C000008C
:10E0800080C000007EC000007CC000007AC000009C
:10E0900078C0000076C0000074C0000072C00000AC
:10E0A00097C000006EC000006CC000006AC0000095
:10E0B00068C0000066C0000064C0000062C00000CC
:10E0C00060C000005EC000005CC000005AC00000DC
:10E0D00058C0000056C0000054C0000052C00000EC
:10E0E00050C000004EC000004CC000004AC00000FC
:10E0F00048C0000046C0000044C0000042C000000C
:10E1000040C000003EC000003CC000003AC000001B
:10E1100038C0000036C0000034C0000032C000002B
:10E1200030C000002EC000002CC000002AC000003B
:10E1300028C0000011241FBECFEFD1E8DEBFCDBF45
:10E1400001E00CBF12E0A0E0B2E0ECE9F1EF03E087
:10E150000BBF02C007900D92AC32B107D9F723E094
:10E16000ACE2B2E001C01D92AC3CB207E1F755D37E
:10E170000D94CCF801E80EBF0FEF0DBF11241FBEA8
:10E180004CC33ECF81E085BF82E085BF87B7806802
:10E1900087BF83B7817F83BF83B7816083BF789454
:10E1A0008895F89483B78E7F83BF87B78F7787BFB3
:10E1B00081E085BF15BE08958093C6008091C000A0
:10E1C00086FFFCCF8091C00080648093C0000895DA
:10E1D0001F920F920FB60F9211240F900FBE0F9047
:10E1E0001F9018958F929F92AF92BF92CF92DF921D
:10E1F000EF92FF921F93CF93DF9323E0FB01809375
:10E200005B0020935700E89507B600FCFDCFE09136
:10E210004702812C912C540111E0E401C95BDD4FD0
:10E22000298130E0322F22272E0F311D7501640124
:10E23000C60ED71EE81EF91E0901F601E0925B002A
:10E2400010935700E89511242EEF82169104A10433
:10E25000B10439F022E0820E911CA11CB11CEA81AC
:10E26000DCCF25E0FB0180935B0020935700E8950D
:10E2700007B600FCFDCFDF91CF911F91FF90EF908B
:10E28000DF90CF90BF90AF909F908F9008958F9226
:10E290009F92AF92BF92CF92DF92EF92FF920F9335
:10E2A0001F93CF93DF9394B1906794B995B1906722
:10E2B00095B92E98ECE38E2EE2E09E2EF401808339
:10E2C000F2E3AF2EF2E0BF2EF50171836083C0E36D
:10E2D000D2E059834883E4E3F2E0C082D182E28253
:10E2E000F382048315832683378380E0DED1E9E35C
:10E2F000F1E080818E7F808380818D7F808380812B
:10E3000081608083EEE4F1E0808180932C021082B2
:10E3100063E082E0CCD160E284E0C9D1F5016081A4
:10E32000B180E4E0F2E06083B182888199819093CA
:10E3300009028093080282E2BAD16B2D83E2B7D141
:10E340006881D98080E2B3D16D2D81E2B0D1F40132
:10E35000608188E0ACD168818DE2A9D166E182E07C
:10E36000A6D168E08FE0DF91CF911F910F91FF90D0
:10E37000EF90DF90CF90BF90AF909F908F9097C11C
:10E380008FE09BD183FB882780F908958F929F921D
:10E39000AF92CF92DF92EF92FF920F931F93CF93A2
:10E3A000DF93B0E1CB2EB7E2DB2EE12CF12CC0E005
:10E3B000D1E012E5812E13E0912E07E412E0AA24A9
:10E3C000AA942E9AC1111CC0DBDF811115C0C114A3
:10E3D000D104E104F10461F08FE99FE00197F1F7C6
:10E3E00000C0000091E0C91AD108E108F108ECCFA3
:10E3F000CC24CA94DC2C7601C3DF811104C048C14F
:10E40000BFDF8823E9F368E08FE051D149EC53E0A6
:10E410006FE787E493E07FD12E9880915003833299
:10E4200009F422C1B0F4803209F48AC018F48130B2
:10E43000E9F01FC1813209F4F2C0823209F019C13A
:10E440001093CB030093CA0340E051E060E070E01A
:10E4500047C0853209F40AC108F43DC0863209F488
:10E4600066C0873209F005C10F9480FE809140029A
:10E4700081110CC180914E0390914F03909307023C
:10E4800080930602809103028F5F80930302809144
:10E490002E0290912F0290930F0280930E0269E159
:10E4A00082E005D1809139018260809339018091A9
:10E4B00039018D7F8093390161E072E08AE222D1D7
:10E4C0008FE0FBD086FFFCCF60E48FE0F0D066E108
:10E4D00082E0EDD0DBC08091510380930002D6C072
:10E4E000E091CA03F091CB03CF0101969093CB0347
:10E4F0008093CA03A08241505109610971094115F5
:10E5000051056105710561F71092430210924402B2
:10E51000109245021092460210922F0210922E0283
:10E52000109242021092410210924002AFC08091BC
:10E53000510390915203A0915303B091540387C0AB
:10E54000809151038093C9039092CB038092CA03B8
:10E55000E091CA03F091CB03208180912E0290912B
:10E560002F028227082E8295807F8025092E982FE2
:10E5700082958F700826869598278927880F880F9F
:10E58000880F802590932F0280932E0220914102C4
:10E5900030914202C9010196909342028093410258
:10E5A0004081F901E95BFD4F40838F3F910531F1D7
:10E5B00028F12E9A80910002863449F4609143023A
:10E5C0007091440280914502909146020BDE809149
:10E5D000430290914402A0914502B09146029F5F90
:10E5E000AF4FBF4F8093430290934402A0934502E4
:10E5F000B093460210924202109241028091CA03E7
:10E600009091CB0301969093CB038093CA038091A2
:10E61000C90381508093C90381119ACF37C080917B
:10E620000002863449F46091430270914402809163
:10E63000450290914602D6DD8091430290914402BA
:10E64000A0914502B09146029F5FAF4FBF4F8093AC
:10E65000430290934402A0934502B0934602109265
:10E6600042021092410212C02E9A12C0D093400270
:10E670000DC0C1110BC0C114D104E104F10441F07B
:10E6800081E0C81AD108E108F1089BCEC1E099CE1B
:10E6900081E0DF91CF911F910F91FF90EF90DF907C
:10E6A000CF90AF909F908F90089508950895E82F90
:10E6B000F0E0E05CFE4F60830895E82FF0E0E05C5E
:10E6C000FE4F80810895E82FF0E0E05CFE4F8081EE
:10E6D0006823862F90E002C0959587954A95E2F7CA
:10E6E0000895E82FF0E0E05CFE4F862F8095908142
:10E6F0008923042E01C0220F0A94EAF72623822BD5
:10E700008083089587FD8FE780938001482F50E034
:10E7100081E891E00DC5FF920F931F93CF93DF9394
:10E720008A01F0907B01F61608F46F2DC62FD0E019
:10E73000AE0160E871E0FCD4C058DE4F8881F8017A
:10E7400080838F2DDF91CF911F910F91FF900895BE
:10E75000FF920F931F93CF93DF938C01F62EEA0164
:10E76000209749F047E060E886E0ADDF91E0813036
:10E7700009F090E0988340E050E06F2DC801DF91F0
:10E78000CF911F910F91FF90C6CFDF92EF92FF9232
:10E790000F931F93CF93DF938C01D62E7A01E9015B
:10E7A000209749F047E060E886E08DDF91E0813016
:10E7B00009F090E09883A7016D2DC801DF91CF91FA
:10E7C0001F910F91FF90EF90DF90A5CF80917B017B
:10E7D0000895FA01282F30E0D901A60FB11DA03805
:10E7E000B10514F06FE7681B462F50E0BF01C90167
:10E7F00080589E4F9DC4782FCA01272F30E0F90121
:10E80000E60FF11DE038F10514F06FE7671B462FA6
:10E8100050E0B90160587E4F8BC4CF93DF93CDB7E2
:10E82000DEB7CB52D1400FB6F894DEBF0FBECDBFDE
:10E8300001E80EBF0FEF0DBF84B78EBBF39B10C076
:10E840008DEB9FE17ED481110BC06FEF8DEB9FE1CB
:10E8500085D421E0CE5DDE4F2883C252D14005C071
:10E86000CE5DDE4F1882C252D140F894A89514BEF6
:10E8700080916000886180936000109260007894BD
:10E8800084B1806784B985B1806785B98091800043
:10E8900081688093800080918100896080938100ED
:10E8A000809180008062809380008091B0008368B6
:10E8B0008093B0008091B10081608093B1008FEBB4
:10E8C0009FE13FD48093C70380EC9FE13AD48093CB
:10E8D000C60381EC9FE135D48093C8038091C703C0
:10E8E00081110FC08091C60381110BC08091C803B4
:10E8F000811107C01092C7038FEF8093C603109257
:10E90000C8032091C7038FEF90E0AC01421B51096F
:10E9100050938900409388002091C603821B91097F
:10E9200090938B0080938A008091C8038095809398
:10E93000B3008091C00082608093C00080E180932A
:10E94000C40088E18093C1000000412C512C3201A9
:10E95000CD5DDE4F1882C352D140CF5DDE4F1882AD
:10E96000C152D140C25EDE4F1882CE51D140312C0F
:10E97000C15EDE4F19821882CF51D140812C912C7B
:10E980005401CE5DDE4F5881C252D14051110CC0AE
:10E99000212C00E010E0412C512C3201CF5DDE4FE4
:10E9A0001882C152D14004C02224239402E010E016
:10E9B000EE24EA94F12CDD24DA940115110509F016
:10E9C00058C08091C00087FD51C00115110509F0A4
:10E9D0004DC065E06A95F1F700007FEF471A570ACE
:10E9E000670A770A81E1481687E2580661047104D4
:10E9F00020F02224239401E010E0C301B20127ECAF
:10EA00003BE140E050E072D3672B682B692BC9F6DD
:10EA100090912D0281E0911180E080932D028091F0
:10EA20002D028823C1F08091C703D701A81BB1092B
:10EA3000B0938900A09388008091C603F701E81B7A
:10EA4000F109F0938B00E0938A008091C8038095D0
:10EA50008093B300B6CFF0928900E0928800F092E4
:10EA60008B00E0928A00D092B300ABCF0F5F1F4FB4
:10EA7000A4CF0130110559F4CF5DDE4FF881C152AA
:10EA8000D140F11154C0222009F48BC050C0CE5D9A
:10EA9000DE4FF880C252D140FF2009F448C01092E6
:10EAA0008000109281001092B0001092B10085B1E8
:10EAB000806785B986EF9FE14CD3AC0184EF9FE17D
:10EAC000C65DDE4F4883CA52D140C55DDE4F5883D4
:10EAD000CB52D1403ED3BC0183EF9FE1C85DDE4FF6
:10EAE0006883C852D140C75DDE4F7883C952D14098
:10EAF00028D3C12CD12CE12CF12C00E010E020E037
:10EB000030E0C65DDE4F4881CA52D140C55DDE4F60
:10EB10005881CB52D140C85DDE4F6881C852D14088
:10EB2000C75DDE4F7881C952D140B1DB2FDC81E176
:10EB300080935700E89580E090E0DC01ABBFFC01DA
:10EB400087919691CF5DDE4F2881C152D14021112E
:10EB500006C0222009F415CF019609F412CF84B122
:10EB60008F7884B985B18F7885B910928000109222
:10EB700081001092B0001092B10000008091C0009E
:10EB80008D7F8093C00010928000109281001092BF
:10EB9000B0001092B10085B1806785B90C94000077
:10EBA000F0CE40E020E030E00130110599F081E046
:10EBB00092E1AAE7B0E05091C00057FD0BC0019769
:10EBC000A109B1090097A105B105A9F72224239451
:10EBD00050E003C05091C600212C433091F120F445
:10EBE000413001F140F026C04530D9F170F1463096
:10EBF00009F457C059C05B3109F46AC2CD5DDE4FDC
:10EC00008881C352D1408F5FCD5DDE4FF881C35202
:10EC1000D140CD5DDE4F8883C352D140F63008F03D
:10EC20004AC044C03526C25EDE4F5883CE51D14023
:10EC300042E03CC0252F30E0322F2227352643E02A
:10EC400035C0252B352644E031C05E3009F044C282
:10EC50003526C15EDE4F19821882CF51D14045E082
:10EC600025C0C15EDE4F88819981CF51D140019688
:10EC7000E1E0F0E0EC0FFD1FC15EDE4F68817981BD
:10EC8000CF51D140E60FF71F5083352682179307E7
:10EC900009F424C2C15EDE4F99838883CF51D140ED
:10ECA00005C0531119C209C0473039F0211005C001
:10ECB00000E010E079CF222423942981233109F444
:10ECC000C7C060F5263009F4B1C0F8F4223009F469
:10ECD00046C1233009F470C0213009F08EC11A8278
:10ECE00088E08B8381E48C8386E58D8382E58E8347
:10ECF00089E48F8383E5888780E589878FE58A8724
:10ED000082E38B870BE010E07CC1213109F463C002
:10ED100008F073C1203109F422C16FC1283109F410
:10ED200078C048F4253109F493C008F41AC126319B
:10ED300009F417C162C12B3109F454C02D3159F0C7
:10ED40002A3109F05AC11A8289E0E1E0F0E08093AB
:10ED50005700849159C08D81803339F49F81992364
:10ED6000E9F09130E9F498EA1EC0982F9075D1F03F
:10ED7000803521F499E0E0E0F0E00CC0883591F4B2
:10ED80009E81911104C099E0E1E0F0E003C0E3E06E
:10ED9000F0E099E090935700949105C09EE103C084
:10EDA00092E001C090E01A821B828C831D829E83B8
:10EDB0001F8207E010E025C1EA81E059E33028F422
:10EDC000F0E0E75DFD4F808101C080E01A828B8317
:10EDD00003E010E016C1F1E0CF5DDE4FF883C152D1
:10EDE000D140BDC08D81882321F0813021F488EA93
:10EDF0000AC08EE108C082E006C089E0E0E0F0E0F1
:10EE00008093570084911A828B831C8204E010E067
:10EE1000F8C08B81803531F48C81883071F7E2E065
:10EE2000F0E002C0E3E0F0E089E0EACF8A818B8085
:10EE3000912CA12CB12C540199248824B82A8D81BD
:10EE4000882A8C81982A880C991CAA1CBB1C87C014
:10EE50000A8110E0102F00278B81082B233109F045
:10EE60004CC000FDCAC08110C8C00130F1E01F07CE
:10EE700008F0C3C0D501C401800F911FA11DB11DB1
:10EE80008130904EA340B10508F0B7C083E0F40193
:10EE9000A0925B0080935700E89574D92B85B5014B
:10EEA000A401CE010B96DC011296CD01FD01319734
:10EEB000E08130E03E2BFF24F3940901FA016093D6
:10EEC0005B00F0925700E89511244E5F5F4F6F4F43
:10EED0007F4F025011090115110511F02C91E3CF5C
:10EEE00085E0F401A0925B0080935700E8954AD931
:10EEF00081E180935700E89532C0A50194015695B1
:10EF0000479537952795CC5DDE4F288339834A8313
:10EF10005B83C452D140AE01455F5F4F6A01E12C73
:10EF2000F12CE016F10681F0D6016D916D01CC5DFA
:10EF3000DE4F88819981C452D1408E0D9F1D0ED124
:10EF4000BFEFEB1AFB0AEDCFC701A0E0B0E0880FDE
:10EF5000991FAA1FBB1F880E991EAA1EBB1E1A82CC
:10EF60004EC08A8190E0982F88273B81832B8C01AB
:10EF70000D5F1F4F1A822431A1F4DE011396ABBE40
:10EF8000F401279136912C931296FD01319730832D
:10EF9000E2E08E0E911CA11CB11C0297009779F73C
:10EFA0002AC0FE0133969C01B501A40141BDC52EC6
:10EFB000D62EE72EFF24C2BC4F5F5F4F6F4F7F4FAF
:10EFC000F89AA0B5A193215031092115310571F7A7
:10EFD000AC014150510960E070E04F5F5F4F6F4FEF
:10EFE0007F4F840E951EA61EB71EA3E0B0E0AC0FA7
:10EFF000BD1FA80FB91F1C9204C080EC8A8302E0D9
:10F0000010E08BE1D9D8C25EDE4F8881CE51D1406D
:10F01000D3D8812FD1D8802FCFD88EE0CDD895E10D
:10F02000392EC25EDE4FF881CE51D1403F263026C8
:10F0300031269E012F5F3F4F7901020F131FE0160B
:10F04000F10639F0D701DD907D018D2DB5D83D2435
:10F05000F6CF832DB1D8C25EDE4FB881CE51D140FC
:10F06000BF5FC25EDE4FB883CE51D14090912D027A
:10F0700081E0911180E080932D0280912D02882300
:10F08000B9F02091C7038FEF90E0FC01E21BF1097A
:10F09000F0938900E09388002091C603821B9109B8
:10F0A00090938B0080938A008091C80380950BC059
:10F0B0008FEF90E0909389008093880090938B006D
:10F0C00080938A008FEF8093B30000E010E0D4CCEF
:10F0D0008BE1382E41E0EACD40E0E8CDC15EDE4F65
:10F0E00039832883CF51D14046E0E0CDA1E21A2EEA
:10F0F000AA1BBB1BFD010DC0AA1FBB1FEE1FFF1FDC
:10F10000A217B307E407F50720F0A21BB30BE40B2B
:10F11000F50B661F771F881F991F1A9469F7609572
:10F120007095809590959B01AC01BD01CF0108952C
:10F13000FB01DC0102C001900D9241505040D8F714
:10F140000895F999FECF92BD81BDF89A992780B5AF
:10F150000895A8E1B0E042E050E010C0262FF999F0
:10F16000FECF1FBA92BD81BD20BD0FB6F894FA9AAA
:10F17000F99A0FBE01960895DC01CB01FC01F999C3
:10F18000FECF06C0F2BDE1BDF89A319600B40D92F3
:0CF1900041505040B8F70895F894FFCFAC
:10F19C00464188000000000000000200000500004D
:10F1AC007769626F000000000000000000000000A2
:0CF1BC0070696E6F6363696F000F020AD8
:040000033000E000E9
:00000001FF
